:03000000020D30BE
:0C0D3000787FE4F6D8FD75810F020D7786
:040F5300020E00008A
:080ED0007F0A7E2EDEFEDFFC2E
:010ED80022F7
:080ED9007F097E2CDEFEDFFC28
:010EE10022EE
:080EE2007F087E46DEFEDFFC06
:010EEA0022E5
:090E8A00007F077ED4DEFEDFFCD0
:010E9300223C
:080EEB007F077E15DEFEDFFC2F
:010EF30022DC
:080EF4007F067E6BDEFEDFFCD1
:010EFC0022D3
:080EFD007F067E1FDEFEDFFC14
:010F050022C9
:090E9400007F057E8FDEFEDFFC0D
:010E9D002232
:090E9E00007F057E0EDEFEDFFC84
:010EA7002228
:090EA800007F047E9DDEFEDFFCEC
:010EB100221E
:080F06007F047E6ADEFEDFFCC1
:010F0E0022C0
:080F0F007F047E0ADEFEDFFC18
:010F170022B7
:080F18007F037EB5DEFEDFFC65
:010F200022AE
:090EB200007F037E8DDEFEDFFCF3
:010EBB002214
:080F21007F037E46DEFEDFFCCB
:010F290022A5
:080F2A007F037E05DEFEDFFC03
:010F3200229C
:080F33007F027ECDDEFEDFFC33
:010F3B002293
:090EBC00007F027EB3DEFEDFFCC4
:010EC500220A
:080F3C007F027E83DEFEDFFC74
:010F4400228A
:090EC600007F027E58DEFEDFFC15
:010ECF002200
:100E4E00758901758A66758CFCD2A9D28CD2AF22B7
:080F4500E4F5808DA08F8022ED
:100DBC00EFB40A00504B900DC9F8282873020DE7C8
:100DCC00020DE9020DED020DF1020DF5020DF90215
:100DDC000DFD020E01020E05020E0980247F068015
:100DEC00227F5B801E7F4F801A7F6680167F6D800E
:100DFC00127F7D800E7F07800A7F7F80067F6F8049
:090E0C00027F3F7E00120F452217
:060E15007BFF7DF47C016F
:100E1B008B098A0A890B8C0C8D0D120E4EE4F50E84
:100E2B00F50FC3E50F950DE50C6480F8E50E6480B6
:100E3B0098500FAA0AA90B120F4D75A0FFE4F5A04D
:030E4B0080E02222
:03000B00020E5E84
:100E5E00C0E0050FE50F7002050E120E4ED0E03207
:0D0E6E00007F027EC17D39DDFEDEFCDFFA73
:010E7B002254
:0D0E7C00007F047E817D77DDFEDEFCDFFA65
:010E89002246
:10080000E4F5087A0E79C6120E157BFF7A0F79335C
:100810007DFA7C00120E1B7A0F792A120E157BFFCF
:100820007A0E79C67DEE7C02120E1B0508E508C320
:10083000940340CF7BFF7A0E79C6120E177BFF7AA6
:100840000F79337DFA7C00120E1B7BFF7A0F792A19
:100850007DE27C04120E1BE4F5087BFF7A0E79C65C
:10086000120E177BFF7A0F79337DFA7C00120E1B74
:100870007BFF7A0F792A120E177BFF7A0E79C67DDD
:10088000EE7C02120E1B0508E508C3940340CB7BE7
:10089000FF7A0E79C67DE87C03120E1B7BFF7A0F70
:1008A00079337DE87C03120E1B120E7C7BFF7A0EDF
:1008B000799E7DFA7C00120E1B7BFF7A0E79A87D53
:1008C000FA7C00120E1B7BFF7A0F7906120E177B43
:1008D000FF7A0E79A87DFA7C00120E1B7BFF7A0F3F
:1008E0007906120E177BFF7A0E799E7DFA7C001234
:1008F0000E1B7BFF7A0E79947DFA7C00120E1B7B17
:10090000FF7A0E79FD7DE27C04120E1B120E7C7BB9
:10091000FF7A0E799E7DFA7C00120E1B7BFF7A0E09
:1009200079A87DFA7C00120E1B7BFF7A0F790612E4
:100930000E177BFF7A0E79A87DFA7C00120E1B7BC6
:10094000FF7A0F7906120E177BFF7A0F79187DFA5E
:100950007C00120E1B7BFF7A0E79B27DFA7C0012AE
:100960000E1B7BFF7A0F79187DE27C04120E1B129E
:100970000E7C7BFF7A0E799E7DFA7C00120E1B7B2B
:10098000FF7A0E79A87DFA7C00120E1B7BFF7A0F8E
:100990007906120E177BFF7A0E79A87DFA7C001279
:1009A0000E1B7BFF7A0F7906120E177BFF7A0E79EA
:1009B0009E7DFA7C00120E1B7BFF7A0E79947DFAE5
:1009C0007C00120E1B7BFF7A0E79FD7DE87C031202
:1009D0000E1B7BFF7A0E79FD7DFA7C00120E1B7BCD
:1009E000FF7A0E79947DEE7C02120E1B7BFF7A0E4D
:1009F000799E7DCA7C08120E1B120E6E7BFF7A0E4A
:100A0000799E7DFA7C00120E1B7BFF7A0E79A87D01
:100A1000FA7C00120E1B7BFF7A0E799E7DFA7C0019
:100A2000120E1B7BFF7A0F7906120E177BFF7A0FCF
:100A3000790F7DFA7C00120E1B7BFF7A0F7906126C
:100A40000E177BFF7A0F7918120E177BFF7A0E793B
:100A5000B2120E177BFF7A0F7906120E177BFF7A00
:100A60000E79B2120E177BFF7A0F7921120E177BC7
:100A7000FF7A0F792A120E177BFF7A0F7933120E45
:100A8000177BFF7A0F792A120E177BFF7A0E79B245
:100A9000120E177BFF7A0F7906120E177BFF7A0E64
:100AA00079B2120E177BFF7A0E79B2120E177BFF06
:100AB0007A0F792A7DFA7C00120E1B7BFF7A0F7960
:100AC00033120E177BFF7A0E79BC120E177BFF7A5A
:100AD0000F79217DFA7C00120E1B7BFF7A0E79B212
:100AE000120E177BFF7A0F790F120E177BFF7A0F0A
:100AF0007906120E177BFF7A0E79B27DFA7C00120E
:100B00000E1B7BFF7A0E79B27DEE7C02120E1B7BF0
:100B1000FF7A0F792A7DFA7C00120E1B7BFF7A0F79
:100B20007933120E177BFF7A0E79BC120E177BFFFA
:100B30007A0F79217DFA7C00120E1B7BFF7A0E79E9
:100B4000B2120E177BFF7A0F7918120E177BFF7AFD
:100B50000E79B2120E177BFF7A0F792A7DFA7C008C
:100B6000120E1B7BFF7A0F79337DEE7C02120E1B77
:100B70007BFF7A0F792A7DFA7C00120E1B7BFF7AAD
:100B80000F7933120E177BFF7A0E79BC7DD07C076C
:100B9000120E1BE4F508120E6E7BFF7A0F79067DAC
:100BA000FA7C00120E1B7BFF7A0E799E120E177BC9
:100BB000FF7A0E79A87DE27C04120E1B0508E50879
:100BC000C3940240D17BFF7A0E79FD7DE87C03124D
:100BD0000E1B120E6E7BFF7A0F792A120E177BFF07
:100BE0007A0F79217DFA7C00120E1B7BFF7A0F7938
:100BF0002A120E177BFF7A0E79B27DFA7C00120E54
:100C00001B7BFF7A0F7918120E177BFF7A0F792A58
:100C1000120E177BFF7A0F7933120E177BFF7A0EB5
:100C200079BC7DE87C03120E1B7BFF7A0F792A12B8
:100C30000E177BFF7A0F79217DFA7C00120E1B7B49
:100C4000FF7A0F792A120E177BFF7A0F79187DFA37
:100C50007C00120E1B7BFF7A0F790F120E177BFFA1
:100C60007A0F792A120E177BFF7A0F7933120E173B
:100C70007BFF7A0E79BC7DE87C03120E1B7BFF7A2A
:100C80000F792A120E177BFF7A0F79217DFA7C00EB
:100C9000120E1B7BFF7A0F792A120E177BFF7A0F39
:100CA00079187DFA7C00120E1B7BFF7A0F790F12E8
:100CB0000E177BFF7A0F792A120E177BFF7A0F79B6
:100CC00033120E177BFF7A0E79BC7DEE7C02120E7A
:100CD0001B7BFF7A0F79217DFA7C00120E1B7BFFB4
:100CE0007A0F792A120E177BFF7A0F7921120E17CD
:100CF0007BFF7A0F790F120E177BFF7A0F7906129E
:100D00000E177BFF7A0E79A8120E177BFF7A0E79E9
:100D10009E7DFA7C00120E1B7BFF7A0E79947DFA81
:100D20007C00120E1B7BFF7A0E7994120E1780FE48
:100D3C00020800E493A3F8E493A34003F68001F2C5
:100D4C0008DFF48029E493A3F85407240CC8C333B8
:100D5C00C4540F4420C8834004F456800146F6DF87
:100D6C00E4800B0102040810204080900F53E47EB5
:100D7C00019360BCA3FF543F30E509541FFEE4937C
:100D8C00A360010ECF54C025E060A840B8E493A343
:100D9C00FAE493A3F8E493A3C8C582C8CAC583CA6E
:100DAC00F0A3C8C582C8CAC583CADFE9DEE780BE26
:010F57000099
:060F4D008A838982E4732F
:00000001FF
